:020000040800F2
:10000000E85000204D020008B1140008511100080A
:10001000AD1400084505000819170008000000008D
:1000200000000000000000000000000011160008A1
:100030004905000800000000C11400083D16000832
:1000400067020008670200086702000867020008EC
:1000500067020008670200086702000867020008DC
:1000600067020008670200086702000867020008CC
:1000700067020008670200086702000867020008BC
:1000800067020008670200086702000867020008AC
:10009000670200086702000867020008670200089C
:1000A000670200086702000867020008670200088C
:1000B000670200086702000867020008670200087C
:1000C000670200086702000867020008670200086C
:1000D000670200086702000867020008670200085C
:1000E000670200086702000867020008670200084C
:1000F000670200086702000867020008670200083C
:10010000670200086702000867020008670200082B
:10011000670200086702000867020008670200081B
:10012000670200086702000867020008670200080B
:1001300067020008670200086702000867020008FB
:1001400067020008670200086702000867020008EB
:1001500067020008670200086702000867020008DB
:1001600067020008670200086702000867020008CB
:10017000670200086702000867020008000000002C
:1001800067020008670200086702000867020008AB
:10019000670200086702000867020008670200089B
:1001A00067020008670200086702000800F002F812
:1001B00000F03CF80AA090E8000C82448344AAF1C5
:1001C0000107DA4501D100F031F8AFF2090EBAE8C3
:1001D0000F0013F0010F18BFFB1A43F0010318477B
:1001E000E035000000360000103A24BF78C878C11E
:1001F000FAD8520724BF30C830C144BF04680C602D
:10020000704700000023002400250026103A28BF74
:1002100078C1FBD8520728BF30C148BF0B60704778
:100220001FB503F09BFA1FBD10B510BD00F04FF9CC
:100230001146FFF7F5FF01F0BFFA00F06DF903B4C6
:10024000FFF7F2FF03BC00F075F900000948804792
:1002500009480047FEE7FEE7FEE7FEE7FEE7FEE7A8
:10026000FEE7FEE7FEE7FEE704480549054A064BC0
:100270007047000005170008AD010008E84A00209B
:10028000E8500020E84C0020E84C002053EA020C23
:1002900000F069802DE9F04B4FF00006002B1FBFE6
:1002A000B3FA83F503FA05F424FA05F65E4012BFAB
:1002B0001643B2FA82F502FA05F4C5F120051EBF15
:1002C00022FA05FC44EA0C04203556EA044C4FEAB5
:1002D000144418BF641C4FF000084FF0000990420E
:1002E00071EB030C39D3002919BFB1FA81F701FA78
:1002F00007F6B0FA80F700FA07F6C7F120071EBF2D
:1003000020FA07FC46EA0C062037B6FBF4FCA7EB04
:100310000507103F07F01F0BCBF120062CFA06F65D
:100320000CFA0BFB44BFB3460026202FA4BF5E4649
:100330004FF0000B5BEA060C08BF4FF0010B19EB06
:100340000B0948EB0608ABFB027C06FB02CC0BFB5F
:1003500003CCC01B71EB0C01C1E70B4602464146C2
:100360004846BDE8F08B13B5084318BF4FF0FF3087
:100370000146AFF30080BDE81C407047032A40F2FD
:10038000308010F0030C00F0158011F8013BBCF137
:10039000020F624498BF11F801CB00F8013B38BF4F
:1003A00011F8013BA2F1040298BF00F801CB38BF5D
:1003B00000F8013B11F0030300F05780083AC0F049
:1003C000088051F8043B083A51F804CBA0E8081023
:1003D000F5E7121D5CBF51F8043B40F8043BAFF356
:1003E0000080D20724BF11F8013B11F801CB48BFB0
:1003F00011F8012B24BF00F8013B00F801CB48BFE6
:1004000000F8012B704702F0FF0343EA032242EA9F
:10041000024200F002B84FF0000200B513469446C5
:100420009646203922BFA0E80C50A0E80C50B1F14C
:100430002001BFF4F7AF090728BFA0E80C5048BF60
:100440000CC05DF804EB890028BF40F8042B08BFFE
:10045000704748BF20F8022B11F0804F18BF00F8FA
:10046000012B704770477047704710B5203AC0F0B5
:100470000B80B1E81850A0E81850B1E81850A0E877
:100480001850203ABFF4F5AF5FEA027C24BFB1E810
:100490001850A0E8185044BF18C918C0BDE8104053
:1004A0005FEA827C24BF51F8043B40F8043B08BF5C
:1004B0007047D20728BF31F8023B48BF11F8012B23
:1004C00028BF20F8023B48BF00F8012B7047754653
:1004D00000F02CF8AE4605006946534620F00700B0
:1004E000854618B020B5FFF7BFFEBDE820404FF0AD
:1004F00000064FF000074FF000084FF0000BAC462D
:10050000ACE8C009ACE8C009ACE8C009ACE8C00977
:1005100021F007018D46704710B50446AFF3008007
:100520002046BDE81040FFF78ABE00000048704733
:10053000D000002001491820ABBEFEE726000200D3
:1005400070470000FEE7000070470000EFF31080E6
:1005500072B600BFFEE700002DE9F04F82B000F157
:100560003E4242F2004502F1FF77C4F202050A2240
:1005700043F6004E4FEAB726A84208BF0922C4F24C
:10058000010E092E38BF4FEAB722012500260027A9
:100590004FF00008009208E008F101080437B8F1B4
:1005A000100F06F1020600F0A7800C6805FA08F9A2
:1005B00014EA090FF0D0D1F804B003220BF0030CB9
:1005C000ACF10104B240012C6FEA020A10D8826833
:1005D000CC6802EA0A02B440224382604268CBF34C
:1005E000001422EA090204FA08F42243426005E0FA
:1005F000BCF1030F02D14FF0030C20E0C2688C68FD
:1006000002EA0A02B4402243BCF1020FC26016D1D2
:100610006FF0030202EA58020244D2F820C007F049
:100620001C050F230C69AB402CEA030304FA05F503
:100630002B431362D1F804B001250BF0030C0268C0
:100640000CFA06F302EA0A021A431BF4403F026066
:10065000A2D0002243F644030192C4F202031A68B6
:100660004FF6084C42F480421A601A68CFF6FF7CBD
:1006700002F480420192019A28F00302724452F877
:100680000C3007F00C050F24AC40A343009C04FA87
:1006900005F52B4342F80C30DEF808204B6842EA9F
:1006A000090543F60C4CDC0258BF22EA0905CEF8D6
:1006B0000850C4F2010CDCF800209C0242EA090553
:1006C00058BF22EA0905CCF80050DEF804209C034C
:1006D00042EA090558BF22EA0905CEF80450DEF8BF
:1006E0000020DB0342EA090558BF22EA0905CEF8DB
:1006F0000050012550E700BF02B0BDE8F08F0000B8
:10070000002A08BF090481617047000044F2EC3000
:10071000C2F200000068704740F2000044F2EC3181
:10072000C2F20000C2F2000100780A6810440860BA
:100730007047000080B543F60040C4F20200016833
:1007400041F400710160016841F480610160016859
:1007500041F480710160032000F07AF80F2000F06E
:1007600005F800F027F8002080BD000070B540F2C9
:100770000006C2F2000640F208013278C2F200011F
:100780004FF47A730968B3FBF2F20446B1FBF2F15D
:10079000084600F0C7FC0F2C4FF0010508D838B907
:1007A0004FF0FF3021460022002500F025F874604C
:1007B000284670BD82B0002043F640010190C4F28B
:1007C00002014A6842F480424A604A6802F4804268
:1007D0000192019A00900868002240F08050086061
:1007E00008680F2100F08050009000986FF0010021
:1007F00002B000F001B8000010B54EF60C5CCEF26D
:10080000000CDCF80030C3F3022E8EF00704042C39
:1008100028BF0424BEF103034FF0FF3E0EFA04F498
:1008200038BF0023A14399400EFA03F39A431143C2
:1008300000F00F0200F160430901043A03F564433C
:100840006244002848BF02F10C03197010BD00007B
:100850004EF60C51CEF200010A684FF6FF031A4023
:1008600060F30A2242F0806040F0FD70086070473B
:100870002DE9F041002800F08B8043F60808C4F20F
:1008800002080446D8F8F8030D4600F00F0088422D
:1008900007D288F8F853D8F8F80300F00F00A84200
:1008A00076D12068810717D5410705D5D8F8001003
:1008B00041F4E051C8F80010010705D5D8F8001040
:1008C00041F46041C8F80010D8F80010A26821F087
:1008D000F0011143C8F80010C0073FD1D8F8F80361
:1008E00000F00F00A84207D988F8F853D8F8F803A9
:1008F00000F00F00A8424BD12068410707D5D8F877
:100900000010E26821F4E0511143C8F8001000071C
:1009100008D5D8F80000216920F4604040EAC10001
:10092000C8F8000000F054F8D8F8001043F27672CE
:10093000C1F30311C0F60002515C40F2080220FA34
:1009400001F140F20400C2F200000068C2F20002AD
:100950001160FFF70BFF0020BDE8F0816068811E89
:10096000022907D258F8081C89015CBF0120BDE8A4
:10097000F08111E0012807D158F8081C89035CBFF9
:100980000120BDE8F08107E058F8081C890703D46E
:100990000120BDE8F08100BFD8F8001021F003016C
:1009A0000843C8F80000FFF7B1FE064641F2883759
:1009B000D8F80000616800F00C00B0EB810F8DD01A
:1009C000FFF7A4FE801BB842F2D90320BDE8F081F6
:1009D00010B543F60404C4F20204606800F00C0190
:1009E00042F200400829C0F2F40007D0042918BFE1
:1009F00010BD41F20020C0F27A0010BD216801F064
:100A00003F02216823684902C3F3881106D4A1FB81
:100A100000010023FFF73AFC07E000BF41F200208D
:100A2000C0F27A004843B0FBF2F021680222C1F321
:100A3000014102EB4101B0FBF1F010BD2DE9F041A5
:100A400082B0002868D00446007843F60006C0074C
:100A5000C4F202060BD0B06800F00C00042840F08D
:100A60009F803068800302D56068002854D02078C9
:100A700080071AD5B06810F00C0F09D0B06800F0EC
:100A80000C00082840F0A6807068400200F1A280A7
:100A90003068800702D5E06801283DD130682169BF
:100AA00020F0F80040EAC10030602078000737D419
:100AB000207840074CD4A56955B3B06800F00C000D
:100AC000082840F0BB80012D26D07068E16900F451
:100AD00080028A4220D1216A00F03F028A421BD163
:100AE00047F6C071626A0140B1EB821F14D1A16A5E
:100AF0004FF6FF73C903994300F44032A1F58031EA
:100B00008A4209D1E16A00F07060B0EB016F03D155
:100B1000002002B0BDE8F081012002B0BDE8F08104
:100B20006069002840F20000C4F2472076D001211D
:100B3000C0F8801EFFF7EAFD054600BF706F800712
:100B4000B6D4FFF7E3FD401B0228F7D9DDE000BF74
:100B5000306C10F080580AD100200190306C40F0C9
:100B600080503064306C00F080500190019847F262
:100B70000007C4F200073868C00541D4386840F463
:100B800080703860FFF7C2FD054600BF3868C005B9
:100B900036D4FFF7BBFD401B0228F7D9B5E000BFF4
:100BA000B06800F00C00082803D1706840023FF5DF
:100BB00058AF6068B0F5803F07D0B0F5A02F40F087
:100BC0008D80306840F480203060306840F48030A0
:100BD00030608DE0E068002852D00020C4F2472049
:100BE00001210160FFF792FD054600BF30688007D4
:100BF0003FF554AFFFF78AFD401B0228F6D984E089
:100C0000A068012805D005284ED1306F40F00400BF
:100C10003067306F40F0010030674FE00021C0F8CE
:100C2000801EFFF773FD0546706F80077FF540AFAC
:100C3000FFF76CFD401B0228F6D966E00027C4F2DE
:100C4000472700203866FFF761FD022D05460BD1CE
:100C5000306880015ED5FFF759FD401B02284FF038
:100C60000300F5D955E700BF306880017FF550AF2C
:100C7000FFF74CFD401B02284FF00300F4D948E772
:100C80000020C4F2472000210160FFF73FFD054628
:100C9000306880077FF509AFFFF738FD401B022859
:100CA0004FF00300F4D934E7316F002821F001013F
:100CB0003167316F21F0040131674DD0FFF726FD18
:100CC000054641F2883700BF306F800756D4FFF7E2
:100CD0001DFD401BB842F7D917E000BF316800285E
:100CE00021F480313160316821F4802131604FD0AE
:100CF000FFF70CFD054600BF306880033FF5B7AE37
:100D0000FFF704FD401B6428F6D9032002B0BDE8BC
:100D1000F08100BF04F11C052FCD084340EA82108A
:100D2000D9034FF6FF729143A1F5803140EA056087
:100D30000843706001203866FFF7E8FC044600BFF6
:100D4000306880013FF5E4AEFFF7E0FC001B0228AD
:100D50004FF00300F4D9DCE6FFF7D8FC054641F27A
:100D6000883700BF306F800708D5FFF7CFFC401BE6
:100D7000B8424FF00300F5D9CBE600BFB8F1000F41
:100D80007FF499AE306C20F08050306493E600BF61
:100D9000FFF7BCFC054600BF306880037FF567AEF7
:100DA000FFF7B4FC401B64284FF00300F4D9B0E611
:100DB00070B538B10446406A30B10020206104F1BA
:100DC000140007E0012070BD6068B0F5827F03D099
:100DD00004F11C00002101600026A66294F8510075
:100DE00020B9204684F8506000F03CF8022084F8D6
:100DF000510094E80F0001F48271056802F4044286
:100E000025F040050560114403F400622369114494
:100E100003F002026369114403F00102A369E5696A
:100E2000114403F40072114405F03802256A11449C
:100E300005F08002A56A114305F4005211430160D8
:100E4000626A042101EA134102F010021144416078
:100E5000C16921F40061C1610120666584F8510017
:100E6000304670BD80B586B0016843F20000C4F220
:100E70000100814202D006B080BD00BF002143F6D0
:100E800030020191C4F20202536900F5504043F46C
:100E900080535361536903F480530193019B019183
:100EA000136843F001031360126802F0010201921B
:100EB000019AE02201920222CDE90221032104914C
:100EC0000521059101A9FFF747FB06B080BD000091
:100ED0002DE9F04383B0044690F85000012803D177
:100EE000022003B0BDE8F0834FF001091D4616460D
:100EF0000F4684F85090FFF709FC94F8511001292F
:100F000044D18046002F4FF0010018BF002E00F0A2
:100F1000D6800320002184F8510061652763A686EE
:100F2000E686A163A187E187A0682164B0F5004F40
:100F30002068616407D1016821F040010160016807
:100F400041F4804101600168490603D4016841F021
:100F5000400101606168731EE268B1FA81F1B3FA81
:100F600083F349095B09B2F5006F41EA03013DD102
:100F700031B137F8021BC1602763E08E0138E0868B
:100F8000E08E00286CD0681C0DD11EE0022096E097
:100F9000216B31F8022BC2602163E08E0138E086BC
:100FA000E08E00285CD0206881688907F0D4FFF7C4
:100FB000ADFBA0EB0800A842F2D303207FE000BF06
:100FC000FFF7A4FBE08E00284AD0206881688907DB
:100FD000F6D5216B31F8022BC2602163E08E013817
:100FE000E086E08E0028F0D13AE000BF39B13978D0
:100FF0000173206B01302063E08E0138E086E08EC3
:1010000070B3681C0BD11BE0216B09780173206B56
:1010100001302063E08E0138E086E08E00B3206866
:1010200081688907F0D4FFF771FBA0EB0800A842A4
:10103000F3D3032043E000BFFFF768FBE08E78B1F5
:10104000206881688907F7D5216B09780173206BC7
:1010500001302063E08E0138E086E08E0028EFD179
:1010600040F20800C2F20000006849F68171C1F246
:101070005E61A0FB0101480D4FF47A714843029074
:101080006068B0F5827F23D1204680212A464346FE
:1010900000F048FA28B1606D40F020006065202023
:1010A0006065A06838B9002001902068C16801918E
:1010B000806801900198606D002818BF0120002110
:1010C00084F8519084F8501003B0BDE8F08300BF5D
:1010D00002980028E5D002980138029020688068C4
:1010E0000006DED502980028DBD002980138029075
:1010F000206880680006D4D502980028D1D00298D4
:1011000001380290206880680006CAD5029800283D
:10111000C7D0029801380290206880680006D7D4B2
:10112000BFE70000411E0020B0EB116F1CBF012083
:1011300070474EF21002CEF2000251604EF623517B
:10114000CEF20001F0230B70072190601160704710
:10115000FEE700002DE9F04F81B041F2004440F27B
:101160004425C4F2020404264FF0000AC2F200052E
:101170000DF103080DF102074FF00A0B4FF00909BA
:101180000F208DF8030020464FF4005100228DF807
:1011900002A0FFF7B5FA2846414601226423FFF773
:1011A00097FE2846394601226423FFF791FE204628
:1011B0004FF400510122FFF7A3FA0C208DF8030031
:1011C00001208DF8020020464FF400510022FFF765
:1011D00097FA2846414601226423FFF779FE284604
:1011E000394601226423FFF773FE20464FF4005175
:1011F0000122FFF785FA0B208DF8030007208DF8F8
:10120000020020464FF400510022FFF779FA2846E9
:10121000414601226423FFF75BFE2846394601223E
:101220006423FFF755FE20464FF400510122FFF7DB
:1012300067FA20464FF4005100228DF803B08DF874
:1012400002A0FFF75DFA2846414601226423FFF71A
:101250003FFE2846394601226423FFF739FE204627
:101260004FF400510122FFF74BFA20464FF4005192
:1012700000228DF803908DF802A0FFF741FA28466E
:10128000414601226423FFF723FE28463946012206
:101290006423FFF71DFE20464FF400510122FFF7A3
:1012A0002FFA013E7FF46CAF40F2442501264FF047
:1012B0000009C2F200050DF103080DF1020700BF9D
:1012C00020464FF4005100228DF803608DF8029003
:1012D000FFF716FA2846414601226423FFF7F8FD7E
:1012E0002846394601226423FFF7F2FD20464FF4D9
:1012F00000510122FFF704FA20464FF4005100226A
:101300008DF803608DF80290FFF7FAF92846414600
:1013100001226423FFF7DCFD2846394601226423BD
:10132000FFF7D6FD20464FF400510122FFF7E8F900
:1013300020464FF4005100228DF803608DF8029092
:10134000FFF7DEF92846414601226423FFF7C0FD7E
:101350002846394601226423FFF7BAFD20464FF4A0
:1013600000510122FFF7CCF920464FF40051002232
:101370008DF803608DF80290FFF7C2F928464146C8
:1013800001226423FFF7A4FD284639460122642385
:10139000FFF79EFD20464FF400510122FFF7B0F900
:1013A0000136092E8CD101B0BDE8F08F80B541F235
:1013B000356043F28872C0F60000C0F600020021DA
:1013C00000F068FA40F23C21C2F20001086080BDE2
:1013D00070B586B0002543F6300005950095C4F23F
:1013E0000200016841F2004441F00401016001681B
:1013F000C4F2020401F00401009100990095016813
:10140000002241F08001016001684FF4005601F0B4
:101410008001009100990095016841F0010101608F
:10142000016801F00101009100990095016841F007
:101430002001016000684FF4005100F0200000908E
:1014400000982046FFF75CF90120CDE9020501A9CB
:10145000204601960495FFF77FF806B070BD0000A6
:1014600080B540F2442043F20001C2F20000C4F211
:1014700001014FF48272002380E80E0000F1140194
:101480004FF4007C4FF0200E81E808500A21C0E99B
:101490000333C0E90833C0E90A31FFF789FC0028AB
:1014A00008BF80BDBDE88040FFF750B8FEE70000F0
:1014B000FEE7000000000000000000000000000047
:1014C000EFF30980BFF36F8F154B1A681EF0100FF2
:1014D00008BF20ED108A20E9F04F10602DE90900C7
:1014E0004FF0500080F31188BFF34F8FBFF36F8F21
:1014F00001F0FCFA4FF0000080F31188BDE809000C
:1015000019680868B0E8F04F1EF0100F08BFB0EC83
:10151000108A80F30988BFF36F8F704700BF00BF48
:10152000300100202DE9F04182B01E4690460D4664
:101530000446FFF7EBF8301A00EB0807FFF7E6F870
:1015400040F20801C2F200010968C1F3CB317943CE
:10155000019121688A682A40AA4227D1064618F1DB
:1015600001001FD0FFF7D2F8801BB84222D20198A9
:1015700001990028A1F1010101912168896808BF42
:10158000074601EA0500A842ECD00FE08868284031
:10159000A8420BD188682840A84207D18868284013
:1015A000A84203D188682840A842EFD0002002B0AA
:1015B000BDE8F081D4E900014268B1F5827F22F0F4
:1015C000E00242600AD1A168B1F5004F02D0B1F546
:1015D000806F03D1016821F040010160A16AB1F57B
:1015E000005F07D1016821F400510160016841F4F6
:1015F00000510160012084F85100002084F850005F
:10160000032002B0BDE8F0810000000000000000EF
:10161000074B19680868B0E8F04F80F30988BFF3FA
:101620006F8F4FF0000080F31188704700BF00BF3C
:1016300030010020012000F0EBF8FBE780B5FFF758
:101640006BF801F0A1FE012808BF80BDBDE8804015
:1016500001F06CBBB0B592B0002443F64000CDE978
:101660000A44CDE908440594CDE90344CDE9014499
:101670000094C4F202000168022541F0805101602B
:10168000006800F080500090009847F2000000943D
:10169000C4F20000016841F440410160006800F4B8
:1016A000404000900098012006904FF48030079051
:1016B0004FF480000D9004200E90A820CDE90F0576
:1016C0000720119006A80C95FFF7B8F920B1EFF3A9
:1016D000108072B6FEE700BF0F20CDE901054FF480
:1016E000A05004904FF48050059001A80521039468
:1016F000FFF7BEF820B1EFF3108072B6FEE700BF2F
:1017000012B0B0BD4EF68850CEF20000016841F430
:101710007001016070470000FEE70000F0B581B085
:1017200041F20044C4F202040D468DF80300204645
:101730004FF400510022FEF7E3FF40F24426C2F2CC
:1017400000060DF103073046394601226423FFF7F6
:10175000BFFB3046294601226423FFF7B9FB304620
:10176000394601226423FFF7B3FB691C304601228E
:101770006423FFF7ADFB3046394601226423FFF7AF
:10178000A7FBA91C304601226423FFF7A1FB3046CA
:10179000394601226423FFF79BFBE91C30460122F6
:1017A0006423FFF795FB20464FF400510122FEF71A
:1017B000A7FF01B0F0BD000082B0FEF7BBFFFFF74E
:1017C00049FFFFF705FEFFF74BFEFFF7C3FC0120C3
:1017D00040F2402C009042F21D40C2F2000CC0F6D4
:1017E000000009A14FF400720023CDF804C001F0FD
:1017F0005FFD01F0FBF800F01BF8FFF7D7FD00F0EC
:101800002BF800BFFEE700BF4D61747269780000DD
:10181000EFF3058100291CBF6FF005007047002819
:1018200004BF0020704780B501F016F8002080BD8D
:10183000EFF3058000281CBF6FF00500704740F2F1
:101840003420C2F200000168002911BF4FF0FF30C0
:10185000012101600020704710B5EFF305800028DA
:101860001CBF6FF0050010BD40F23420C2F2000032
:10187000016801291CBF4FF0FF3010BD4EF61F510B
:10188000CEF2000100240C700221016001F0AEF8DC
:10189000204610BD2DE9F04184B08E46002403940B
:1018A000EFF3058150B149B94FF0000452B193698B
:1018B000002B08BF1823382B16D90024204604B06B
:1018C000BDE8F08180251823002103AF0093AAB260
:1018D0007346019701F0ECFC0399012808BF0C4600
:1018E000204604B0BDE8F0811179C90724D15769B9
:1018F000D2E902864FEA970C1168002F654608BFAF
:101900008025B8F1000F13D05C2E15D31269002486
:10191000002A18BF002FD1D0CDE9003262467346AD
:10192000CDF8088001F0F4FC04B0BDE8F08100BF00
:1019300016B91269002AC8D00024204604B0BDE8B8
:10194000F08100002DE9F041044600F043FE40F232
:101950003016C2F20006F06840F28C350130F060BB
:101960003068C2F2000558B13069002840F00781A4
:101970003068E16AC06A884298BF3460FFE000BF07
:101980003460F068012840F0FA80284600F0C8FD75
:1019900005F1140000F0C4FD05F1280000F0C0FDC1
:1019A00005F13C0000F0BCFD05F1500000F0B8FD71
:1019B00005F1640000F0B4FD05F1780000F0B0FD21
:1019C00005F18C0000F0ACFD05F1A00000F0A8FDD1
:1019D00005F1B40000F0A4FD05F1C80000F0A0FD81
:1019E00005F1DC0000F09CFD05F1F00000F098FD31
:1019F00005F5827000F094FD05F58C7000F090FD07
:101A000005F5967000F08CFD05F5A07000F088FDDE
:101A100005F5AA7000F084FD05F5B47000F080FDB6
:101A200005F5BE7000F07CFD05F5C87000F078FD8E
:101A300005F5D27000F074FD05F5DC7000F070FD66
:101A400005F5E67000F06CFD05F5F07000F068FD3E
:101A500005F5FA7000F064FD05F5027000F060FD18
:101A600005F5077000F05CFD05F50C7000F058FD01
:101A700005F5117000F054FD05F5167000F050FDED
:101A800005F51B7000F04CFD05F5207000F048FDD9
:101A900005F5257000F044FD05F52A7000F040FDC5
:101AA00005F52F7000F03CFD05F5347000F038FDB1
:101AB00005F5397000F034FD05F53E7000F030FD9D
:101AC00005F5437000F02CFD05F5487000F028FD89
:101AD00005F54D7000F024FD05F5527000F020FD75
:101AE00005F5577000F01CFD05F55C7000F018FD61
:101AF00005F5617000F014FD05F5667000F010FD4D
:101B000005F56B7000F00CFD05F5707000F008FD38
:101B100005F5757000F004FD05F57A7000F000FD24
:101B200005F57F7000F0FCFC05F5826000F0F8FC24
:101B300005F2244000F0F4FC05F5876000F0F0FCAD
:101B400005F24C4000F0ECFC40F20C28C2F2000818
:101B5000404600F0E5FC08F11407384600F0E0FCD0
:101B600006F1640000F0DCFC06F13C0000F0D8FC5B
:101B700006F1500000F0D4FCC6F81C803762706893
:101B8000716A421CE06A72608842626488BF706257
:101B900000EB800005EB8000211D00F003FD00F04C
:101BA0003DFD306988B13068E16AC06A884228BF6B
:101BB000BDE8F0814EF60450CEF200004FF08051A7
:101BC0000160BFF34F8FBFF36F8FBDE8F08100005E
:101BD00040F2301540F28C364EF60458C2F2000541
:101BE000C2F20006CEF200084FF0805703E000BFBB
:101BF000204600F02BFDA868D0B100F0EBFCA86CEB
:101C0000C468201D00F05EFCE8680138E860A86840
:101C10000138A86000F002FD94F859000228EAD0CB
:101C20000128E5D070B9206B00F010FDE0E700BF9F
:101C300030680228DFD3C8F80070BFF34F8FBFF3BE
:101C40006F8FD8E74FF0500080F31188BFF36F8F8C
:101C5000BFF34F8FFEE700002DE9F0470A9C824654
:101C6000206B16460F46DDE908599100A5229846DB
:101C7000FEF7C9FB206B002F00EB8600A0F10400EB
:101C800020F0070656D0387884F8340038780028D9
:101C90004BD0787884F835007878002845D0B8782B
:101CA00084F83600B87800283FD0F87884F83700F8
:101CB000F878D0B3387984F838003879A8B37879CF
:101CC00084F83900787980B3B87984F83A00B87923
:101CD00058B3F87984F83B00F87930B3387A84F84F
:101CE0003C00387A08B3787A84F83D00787AE0B11D
:101CF000B87A84F83E00B87AB8B1F87A84F83F0030
:101D0000F87A90B1387B84F84000387B68B1787BF2
:101D100084F84100787B40B1B87B84F84200B87BFE
:101D200000281CBFF87B84F84300002084F843009F
:101D300003E000BF002084F834000027201D372D69
:101D400028BF3725E562C4E9135700F0F5FB04F11D
:101D5000180000F0F1FBC5F13800A0613046514693
:101D6000424624616462676584F8587000F042FB63
:101D7000B9F1000F206018BFC9F80040BDE8F08736
:101D800008480068006880F308884FF0000080F37E
:101D9000148862B661B6BFF34F8FBFF36F8F00DF59
:101DA00000BF000008ED00E081B00020009040F28C
:101DB000CC00C2F2000000684FF0500181F311889E
:101DC000BFF36F8FBFF34F8F013007D0FEE700BF27
:101DD000009830B9009820B9009810B900980028F0
:101DE000F6D001B07047000088B040F2A81AC2F2E5
:101DF000000A0DF11009EB46DAF8080005681DB17C
:101E0000C068046801E000BF002400F067FE01F034
:101E1000CBFADAF810100646884220D3002DCAF813
:101E2000106051D0A6424FD301F0C6FBDAF808008B
:101E3000C068C7683D1D284600F044FB97F828009D
:101E4000410745D400F0FE0087F8280084E000BF79
:101E50006860DAF8080039462D6100F071FBDAF8A5
:101E60000800016831B3C068C56804682F1D384692
:101E700000F028FB296A2846884795F82800400783
:101E8000EDD5A8692044A042E2D8DAF80000002885
:101E900000F04881002004A931C101F075FADAF898
:101EA000000049460022002300F0C8FF0028D6D1D8
:101EB00038E100BFDAF80C10CAF81060CAE9021065
:101EC00001F07AFB1AE100BF65B1002210E000BF0B
:101ED000B8693F610119B14279601FD90AF1080060
:101EE00021E000BFDAF80C000068B0FA80F0420987
:101EF000DAF80000A11B00F085FC01F05DFB002872
:101F000040F0FC804EF60450CEF200004FF08051BD
:101F10000160BFF34F8FBFF36F8FEFE0311B814242
:101F200006D20AF10C000068294600F009FB13E014
:101F3000DAF80000002800F01381002004A991C104
:101F400001F022FADAF8000049460022002300F0EE
:101F500075FF002800F00481396A38468847CDE0D3
:101F60000098B0F1FF3F07DCDDE9012003999047BD
:101F70000098002800F1C280029E706910B1301DE7
:101F800000F0A0FA01F010FADAF8101007468842C3
:101F90000DD30098CAF8107009283FD9AEE000BFF1
:101FA0006860DAF8080021462D6100F0C9FADAF815
:101FB0000800016841B3C068C568D0F800802C1DD6
:101FC000204600F07FFA296A2846884795F82800BD
:101FD0004007ECD5A86940444045E1D8DAF8000054
:101FE000002800F095800020CDE90408069501F056
:101FF000CBF9DAF8000049460022002300F01EFF6A
:102000000028D4D184E000BFDAF80C10CAE902102D
:102010000098CAF81070092800F27080DFE800F01C
:102020000606064448620606444800BF96F82800A3
:10203000019A40F00101B06986F8281083183146F2
:1020400041F8043FBB42366106D997420AF10800C5
:1020500007D293420AD204E0BA1A824206D20AF1A7
:102060000C00006800F06CFA48E000BF316A3046AE
:10207000884796F82800400740D5DAF80000002885
:102080005AD00198B169069608440021CDE90410A0
:1020900001F07AF9DAF8000049460022002300F046
:1020A000CDFE58BB48E000BF96F8280022E000BFF4
:1020B00096F8280040F00101019886F828100028C1
:1020C000B06143D0384431460AF10C0241F8040FA4
:1020D0003661B84288BF0AF10802106800F030FA91
:1020E0000CE000BF96F82800810703D4304600F0CA
:1020F000ADFA03E000F0FE0086F82800DAF80000F0
:102100005946002200F0B0FF00287FF429AF73E6A3
:102110004FF0500080F31188BFF36F8FBFF34F8FE4
:10212000FEE700BF4FF0500080F31188BFF36F8FC0
:10213000BFF34F8FFEE700BF4FF0500080F31188D0
:10214000BFF36F8FBFF34F8FFEE700BF4FF050001C
:1021500080F31188BFF36F8FBFF34F8FFEE700BF8F
:102160004FF0500080F31188BFF36F8FBFF34F8F94
:10217000FEE70000F0B581B0044600F02BFA94F9B8
:102180004560012E0FDB04F1240500BF286850B123
:10219000284601F0D7F9002818BF00F0A7FBF0B2DD
:1021A000013E0128F2D8FF2684F8456000F036FA97
:1021B00000F010FA94F94470012F0EDB04F11005C1
:1021C000286850B1284601F0BDF9002818BF00F07A
:1021D0008DFBF8B2013F0128F2D884F8446001B0C9
:1021E000BDE8F04000F01ABA70B5044600F076FC85
:1021F00040F2E41CC2F2000CDCF8040050B19CF880
:102200000000002818BF4FF000404FF0000574BBDD
:102210008DE000BF40F2EC70C2F20000C21D22F05F
:10222000070210F00701A0EB020318BF10460022BE
:102230004FF47055CCE90602002918BF03F570551C
:10224000411921F00701A1F10803CCF8043041E95C
:102250000222191AC0E9003101208CF800004FF069
:102260000040CCE90211002C4FF000055FD0204067
:102270005DD124F0070000F11002600708BF04F1EF
:102280000802002A4FF0000551D0DCF80800824215
:102290004DD8604650F818EFDEF8045095422CD225
:1022A000DEF80010C1B174464D68954218D20B6833
:1022B000B3B15D68954217D21868A8B145689542D8
:1022C00016D20468A4B16568954215D22168A64665
:1022D0000029E9D111E000BF0CF118000DE000BFAA
:1022E0008E46204609E000BF9E46084605E000BF36
:1022F0008646184601E000BFA646DCF804108E456D
:1023000014D00168DEF80040AB1A112B04604DD3E5
:102310000EEB0205680719D04FF0500080F31188CA
:10232000BFF36F8FBFF34F8FFEE700BF002501F0B3
:1023300043F968075BD04FF0500080F31188BFF37A
:102340006F8FBFF34F8F00BFFEE700BF0CF1180087
:102350006B60CEF8042000BF0368AB420AD2186855
:10236000A8420BD20368AB4204D218681A46A842AE
:10237000F2D304E00246184601E000BF1A46536853
:102380006C68D618AE4202D11C44154654602B1915
:10239000834207D1DCF80430984203D0D0E900032F
:1023A00023446B60AA42286018BF156001F108053C
:1023B000DEF80400DCE90212091A9142CCF8081098
:1023C00038BFCCF80C109CF80010002918BF40F062
:1023D0000040CEF80400DCF8100000210130CEF8F7
:1023E0000010CCF8100001F0E7F86807A3D12846E8
:1023F00070BD0000034641F6A950C0F600004FF042
:10240000807C21F0010103E903106FF0020043F822
:10241000240CA3F1440043F8202C704740F20C0533
:1024200040F23824C2F20005C2F20004002600BFC8
:10243000AF19A85B398A2080618001202146FFF70F
:102440006DF97888798A2080618002202146FFF723
:1024500065F9B888B98A2080618003202146FFF79A
:102460005DF9F888F98A2080618004202146FFF711
:1024700055F93889398B2080618005202146FFF786
:102480004DF97889798B2080618006202146FFF7FD
:1024900045F9B889B98B2080618007202146FFF774
:1024A0003DF9F889F98B2080618008202146FFF7EB
:1024B00035F94FF47A7000F0CFF92036C02EB7D13D
:1024C000B4E70000D0E9013201699A60D1F804C094
:1024D00082688445536008BF4A6000220261086830
:1024E000013808600868704744F2F053C2F20003F4
:1024F000036044F2F030C2F20000086080201060F7
:102500007047000044F64C23C2F20003036044F21B
:102510004C60C2F2000008604FF480701060704799
:102520004FF0FF31024642F8081F00214260C0E927
:102530000322016070470000002101617047000024
:1025400010B5D1F800E01EF1010213D000F108042B
:1025500062681368734511D853681C68744511D8B4
:102560005A68146874450FD854682368A4467345A4
:10257000EED90BE00269D2F804C007E09446224687
:1025800004E000BF9C4601E094461A46C1F804C02E
:10259000CCF808108A60516008610168013101605F
:1025A00010BD0000D0F800C0436808619A684B6015
:1025B0008A609A68996051600CF10101016070476E
:1025C000DFF80C00016841F4700101607047000001
:1025D00088ED00E04FF0500080F31188BFF36F8F5B
:1025E000BFF34F8F40F2CC00C2F2000001684A1CDA
:1025F000026009B1704700BF4EF60450CEF20000F1
:102600000068000608BF70474FF0500080F3118843
:10261000BFF36F8FBFF34F8FFEE7000040F2CC0097
:10262000C2F20000016839B10139016018BF70477A
:10263000002080F3118870474FF0500080F311881C
:10264000BFF36F8FBFF34F8FFEE7000070B5002818
:1026500008BF70BD40F2E415C2F2000504462878B8
:1026600054F8041C002818BF4FF0004008420DD059
:10267000A4F1080632689AB14FF0500080F3118837
:10268000BFF36F8FBFF34F8FFEE700BF4FF05000D7
:1026900080F31188BFF36F8FBFF34F8FFEE700BF4A
:1026A00021EA000044F8040C00F018FA54F8041C65
:1026B000A8680844A86005F1180000BF0368B34289
:1026C0000AD21868B04225D20368B34204D218680F
:1026D0001A46B042F2D301E0024618465368D418B5
:1026E000B44202D11944164651607318834206D190
:1026F0006B68984203D0D0E9000319447160B2427C
:10270000306018BF1660686901306861BDE87040CC
:1027100000F052BF1A465368D418B442E5D1E1E73D
:102720004EF21000CEF2000000210160816040F204
:102730000801C2F20001096844F6D352C1F26202F4
:10274000A1FB02124FF0FF3101EB92114160072112
:102750000160704744F6A82CC2F2000CDCF800209F
:1027600022B3634653F8082F42B3634653F8102F41
:1027700052B3634653F8182F62B3634653F8202FC1
:1027800072B3634653F8282F82B3634653F8302F51
:1027900092B3634653F8382F002A18BF70470722B8
:1027A00019600CEBC2014860704700BF002263460D
:1027B00019600CEBC2014860704700BF012219602C
:1027C0000CEBC20148607047022219600CEBC20199
:1027D00048607047032219600CEBC20148607047E3
:1027E000042219600CEBC201486070470522196091
:1027F0000CEBC20148607047062219600CEBC20165
:102800004860704770B515460E460446FFF7E2FE75
:1028100094F84400FF2804BF002084F8440094F892
:102820004500FF2804BF002084F84500FFF7F6FEAE
:10283000A06B28B12046BDE87040FFF79BBC00BFED
:1028400004F1240031462A4600F092F82046BDE803
:102850007040FFF78FBC000070B588B340F23015B0
:10286000C2F200050446686950B14FF0500080F391
:102870001188BFF36F8FBFF34F8F00BFFEE700BF1C
:10288000686901306861AE6928680430FFF71AFE94
:102890002868A419446005D3286A29680431FFF721
:1028A0004FFE08E0E86929680431FFF749FEE86A4D
:1028B000844238BFEC6200F07FFE002818BF70BD74
:1028C0004EF60450CEF200004FF080510160BFF38D
:1028D0004F8FBFF36F8F70BD40F23011C2F2000115
:1028E0008A6B0260896941607047000040F23010D5
:1028F000C2F20000012101637047000070B5D8B139
:1029000040F23014C2F200040D4621681831FFF77E
:1029100017FEA66920680430FFF7D4FD681C15D0A7
:102920002068AD19456019D3206A21680431BDE8DB
:102930007040FFF705BE00BF4FF0500080F31188D4
:10294000BFF36F8FBFF34F8FFEE700BF54F8500BFC
:10295000011D2046BDE87040FFF724BEE0692168F4
:102960000431FFF7EDFDE06A854238BFE56270BDD6
:10297000F0B581B0C0B140F23014C2F200040D468F
:10298000216816461831FFF70DFEA769206804304C
:10299000FFF798FD96B154F8500B011D204601B089
:1029A000BDE8F040FFF7FEBD4FF0500080F3118806
:1029B000BFF36F8FBFF34F8FFEE700BF2068ED19A5
:1029C000456007D3206A2168043101B0BDE8F040BA
:1029D000FFF7B6BDE06921680431FFF7B1FDE06A99
:1029E000854238BFE56201B0F0BD000010B588B087
:1029F0000020CDE9050006A805A904AAFFF774FD8B
:102A0000059800283ED0069C002C45D05C21049AF5
:102A1000079107995C2949D107992063022084F81E
:102A2000590007A80021CDE9001041F6D130C0F6C9
:102A3000000028A100230294FFF70EF92046FEF7BC
:102A400081FF079840F23014C2F20004A062B0B1D6
:102A500000F02AFE411C33D0012810D14FF0500065
:102A600080F31188BFF36F8FBFF34F8F4FF0FF30AC
:102A7000E062012020610020A06100F095F808B01C
:102A800010BD00BF4FF0500080F31188BFF36F8F6F
:102A9000BFF34F8FFEE700BF4FF0500080F3118867
:102AA000BFF36F8FBFF34F8FFEE700BF4FF05000B3
:102AB00080F31188BFF36F8FBFF34F8FFEE700BF26
:102AC0004FF0500080F31188BFF36F8FBFF34F8F2B
:102AD000FEE700BF49444C450000000040F23010C2
:102AE000C2F20000416901314161704780B540F296
:102AF000301EC2F2000EDEF8141019B10121CEF81A
:102B0000301080BD0021CEF83010DEF8241040F2E5
:102B10008C3C01EB8103C2F2000C5CF823208AB1EB
:102B200001EB81020CEB820353F8042F5268181D4D
:102B300082421A6020D0D068CEF80000CEF824106F
:102B400080BD00BF0CEB8302A2F12803E1B15A69FA
:102B500022BB012918D01A6812BB022914D053F8DD
:102B6000142CFAB903290FD053F8282C0439002A61
:102B7000A3F15003EAD0D3E752681A60D068CEF8C8
:102B80000000CEF8241080BD4FF0500080F3118873
:102B9000BFF36F8FBFF34F8FFEE700BF0139BFE771
:102BA0000239BDE70339BBE7B0B584B04EF2004C43
:102BB000CEF2000C4CF27021C4F20F11DCF80029A7
:102BC0004B1C9A420AD14FF0500080F31188BFF39A
:102BD0006F8FBFF34F8F00BFFEE700BFDCF8002907
:102BE0008A4209D14FF0500080F31188BFF36F8FF4
:102BF000BFF34F8FFEE700BF9CF800100291FF214A
:102C00008CF800109CF800108DF807109DF8071044
:102C100001F0500240F20421C2F200010A700722C2
:102C20004A609DF90720B2F1FF3F69DC032200BF33
:102C3000D31C4B609DF8070040008DF807009DF9FC
:102C40000700B0F1FF3F23DC931C4B609DF80700A9
:102C500040008DF807009DF90700B0F1FF3F17DC39
:102C6000531C4B609DF8070040008DF807009DF94C
:102C70000700B0F1FF3F0BDC4A609DF80700043A03
:102C800040008DF807009DF907000028D0D4131DDF
:102C9000032B35D14FF44070486002988CF8000047
:102CA000DCF8200940F47000CCF82009DCF8200999
:102CB00040F07040CCF82009FFF732FD40F2CC0420
:102CC000C2F2000400252560FFF77AFC4EF634704E
:102CD000CEF20000016841F040410160FFF750F87A
:102CE000FFF704FF039520684FF0500181F311882E
:102CF000BFF36F8FBFF34F8F013011D0FEE700BFDE
:102D00004FF0500080F31188BFF36F8FBFF34F8FE8
:102D1000FEE700BF039830B9039820B9039810B9B3
:102D200003980028F6D0002004B0B0BD80B54FF065
:102D3000500080F31188BFF36F8FBFF34F8F00F007
:102D400039FB30B14EF60450CEF200004FF0805106
:102D50000160002080F3118880BD000070B582B052
:102D600070B11C46B3B1F9B9F2B14FF0500080F325
:102D70001188BFF36F8FBFF34F8F00BFFEE700BF17
:102D80004FF0500080F31188BFF36F8FBFF34F8F68
:102D9000FEE700BF4FF0500080F31188BFF36F8F44
:102DA000BFF34F8FFEE700BF51B14AB94FF050005B
:102DB00080F31188BFF36F8FBFF34F8FFEE700BF23
:102DC00050230193019B502B2ED1019B069E012382
:102DD00084F84630002908BF22462260C4E90F016A
:102DE000FFF7F8FB2068D4E90F12002502FB01036E
:102DF000013901FB0201A563C4E90103FF20E16081
:102E000084F8440084F8450004F11000FFF788FBC3
:102E100004F12400FFF784FBFFF700FC204684F850
:102E20004C6002B070BD00BF4FF0500080F31188BD
:102E3000BFF36F8FBFF34F8FFEE700002DE9F04F18
:102E400083B00292C0B11D4617460E460446E9B152
:102E5000022D03D1E06B012840F0888000F094FA45
:102E600010BB0FB34FF0500080F31188BFF36F8F8A
:102E7000BFF34F8FFEE700BF4FF0500080F3118883
:102E8000BFF36F8FBFF34F8FFEE700BF206C0028AA
:102E9000DED04FF0500080F31188BFF36F8FBFF387
:102EA0004F8F00BFFEE700BFFFF794FBA06B022D22
:102EB00066D0E16B884263D304F1100801206F46AD
:102EC0000DF108090DE000BF2046FFF753F900F0AF
:102ED00073FBFFF77FFBA06BE16B88424FF00000B4
:102EE0004ED30299002973D0C00702D03846FFF7AD
:102EF000F3FCFFF793FBFFF7F1FDFFF76BFB94F893
:102F00004400FF2804BF002084F8440094F84500E2
:102F1000FF2804BF002084F84500FFF77FFB3846F8
:102F2000494600F073F9002858D1FFF753FBD4F855
:102F300038A0D4F83CB0FFF771FBDA45C4D1029950
:102F40004046FFF7DBFC2046FFF714F900F034FBA6
:102F50000028BED14EF60450CEF200004FF0805152
:102F60000160BFF34F8FBFF36F8FB2E74FF0500098
:102F700080F31188BFF36F8FBFF34F8FFEE700BF61
:102F8000A76B226CD2B19DB3E0683146FDF7F6F92C
:102F9000E168206C2268091A9142E16003D2A168BD
:102FA00040420844E060A81EB0FA80F0400939466B
:102FB000002F18BF012108403F1A26E02068002595
:102FC00020BBA06800F078FAA56005461EE000BFAF
:102FD000FFF724FB002003B0BDE8F08F2046FFF789
:102FE000C9F800F0E9FA002003B0BDE8F08F00BF97
:102FF00060683146FDF7C2F9216CD4E9010208444A
:103000009042606001D3206860600025781CA06356
:1030100054F8240FA0B1204600F094FA50B14EF6B7
:103020000450CEF200004FF080510160BFF34F8F8B
:10303000BFF36F8FFFF7F2FA012003B0BDE8F08F06
:10304000002DF7D04EF60450CEF200004FF0805124
:103050000160BFF34F8FBFF36F8FFFF7DFFA0120DF
:1030600003B0BDE8F08F00002DE9F04F83B002926D
:1030700090B116460D460446002947D000F084F969
:10308000A0B99EB14FF0500080F31188BFF36F8F4D
:10309000BFF34F8FFEE700BF4FF0500080F3118861
:1030A000BFF36F8FBFF34F8FFEE700BFFFF792FABA
:1030B000D4F838A0BAF1000F36D0226C52B1D4E95E
:1030C00002308118E160994224BF2168E1602846FE
:1030D000FDF754F9AAF10100A06354F8100F70B184
:1030E000204600F02FFA50B14EF60450CEF2000008
:1030F0004FF080510160BFF34F8FBFF36F8F0124FA
:10310000FFF78CFA204603B0BDE8F08F206C002852
:10311000B4D04FF0500080F31188BFF36F8FBFF32E
:103120004F8F00BFFEE700BF04F1240801206F4667
:103130004FF000090DF1080B2EE000BFFFF76EFA0B
:10314000FFF7CCFCFFF746FA94F84400FF2808BFCD
:1031500084F8449094F84500FF2808BF84F845900F
:10316000FFF75CFA3846594600F050F8E0B12046C7
:10317000FFF700F800F020FAFFF72CFAA66BFFF734
:103180004DFA002E3CD0FFF725FAD4F838A00020E5
:10319000BAF1000F7FF491AF029949B3C007CDD0C7
:1031A0003846FFF799FBC9E7FFF714FAA66BFFF75C
:1031B00035FA2EB12046FEF7DDFF00F0FDF9E2E71B
:1031C00002994046FFF79AFB2046FEF7D3FF00F036
:1031D000F3F90028D7D14EF60450CEF200004FF09C
:1031E00080510160BFF34F8FBFF36F8FCBE700BFFC
:1031F0000024FFF713FA204603B0BDE8F08F00BFAC
:103200000024204603B0BDE8F08F0000B0B5D8B16F
:103210000D4619B30446FFF7DDF940F2301CC2F247
:10322000000CDCF8182029684B1C21D0D4E9000ED2
:10323000DCF83830834221D072451FD30124FFF7D8
:10324000EDF92046B0BD00BF4FF0500080F311886B
:10325000BFF36F8FBFF34F8FFEE700BF4FF05000FB
:1032600080F31188BFF36F8FBFF34F8FFEE700BF6E
:103270000024FFF7D3F92046B0BD00BFA2EB0E0239
:1032800091420DD9881A2860DCF838002060DCF8FB
:10329000180060600024FFF7C1F92046B0BD00BFF0
:1032A000002001242860FFF7B9F92046B0BD0000D6
:1032B0002DE9F04383B007469000984615468946AD
:1032C000FEF792FFF8B106465C20FEF78DFFB8B11D
:1032D0000446DDE90A100022266384F85920CDE96E
:1032E0000010384649462A4643460294FEF7B4FC8D
:1032F0002046FEF727FB012003B0BDE8F08300BFA6
:103300003046FFF7A3F94FF0FF3003B0BDE8F0837C
:1033100070B586B00B9CCCB10C9E0EB35C250495A9
:10332000049D5C2D26D1049DDDF828C0022586F879
:10333000595005AD3463CDE900C50296FEF78CFC0B
:103340003046FEF7FFFA059806B070BD4FF050000A
:1033500080F31188BFF36F8FBFF34F8FFEE700BF7D
:103360004FF0500080F31188BFF36F8FBFF34F8F82
:10337000FEE700BF4FF0500080F31188BFF36F8F5E
:10338000BFF34F8FFEE7000040F23010C2F20000A2
:10339000016900290FBF01204069B0FA80F040099F
:1033A00018BF40007047000040F23010C2F2000029
:1033B000806970472DE9F04381B040F23016C2F2C7
:1033C0000006706940B1706B0024013070632046C4
:1033D00001B0BDE8F08300BFB06910F10109C6F883
:1033E000189020D3F069006850B14FF0500080F37E
:1033F0001188BFF36F8FBFF34F8F00BFFEE700BF91
:10340000F069316AF1613062B06B0130B063F0692C
:10341000006828B1F069C068C068406802E000BF79
:103420004FF0FF30F062F06A40F28C388145C2F212
:10343000000801D200242EE0F0690024006813E0A7
:10344000F86A716A884288BF706200EB800008EBFE
:1034500080002946FFF7A6F8F86A3168C96AF26960
:10346000884228BF0124106890B1F069C068C7681D
:103470003D4655F8040F81450CD32846FFF722F846
:10348000B86A0028DCD007F11800FFF71BF8D7E76F
:103490004FF0FF30F0623068C06A00EB800058F8EF
:1034A0002000012888BF0124306B002818BF0124A8
:1034B000204601B0BDE8F08370B588B140F2301607
:1034C000C2F2000604463068A0420BD04FF0500014
:1034D00080F31188BFF36F8FBFF34F8FFEE700BFFC
:1034E000002070BD206D18B3411EE06AE26C2165BA
:1034F00090424FF0000008BF70BDC1B9251D28469D
:10350000FEF7E0FFE06CC0F13801E062A161716A92
:10351000884240F28C3188BF706200EB8000C2F2BA
:10352000000101EB80002946FFF73CF8012070BD47
:103530004FF0500080F31188BFF36F8FBFF34F8FB0
:10354000FEE7000070B5C068C5686DB105F11804EC
:103550002046FEF7B7FF40F23016C2F2000670694F
:1035600060B106F164001AE04FF0500080F311885A
:10357000BFF36F8FBFF34F8FFEE700BF2C1D2046B8
:10358000FEF7A0FFE86A716A884240F28C3188BF7A
:10359000706200EB8000C2F2000101EB8000214666
:1035A000FFF700F8E86A3168C96A884292BF0020D4
:1035B0000120306370BD00002DE9F04140F230156C
:1035C000C2F20005686968B1FFF704F8686901385C
:1035D0006861686980B10024FFF720F82046BDE8E3
:1035E000F08100BF4FF0500080F31188BFF36F8F60
:1035F000BFF34F8FFEE700BFE8680028EBD0686E8E
:1036000088B340F28C36C2F200064FF0010800BFCA
:10361000286FC76807F11800FEF754FF3C1D2046CD
:10362000FEF750FFF86A696A884288BF686200EB5B
:10363000800006EB80002146FEF7B4FFF86A296897
:10364000C96A884228BFC5F83080686E0028DFD17B
:10365000E869006820B1E869C068C068406801E0B6
:103660004FF0FF30E8626C6B4CB10126FFF7A2FE11
:10367000002818BF2E63013CF8D100206863286B36
:103680000028A8D04EF60450CEF200004FF0805132
:103690000160BFF34F8F0124BFF36F8FFEF7BEFFB2
:1036A0002046BDE8F081000070B586B0FEF792FFBD
:1036B00040F2A816C2F20006306808BB06F11404F6
:1036C0002046FEF72DFF06F128052846FEF728FFC5
:1036D00040F29C2240F23C33C6E902450025C2F28A
:1036E0000002C2F200030A2010210095FFF736FB0A
:1036F000306028B143F2B871C0F60001FFF72AF834
:10370000FEF78CFF3068D8B10020CDE9040005A891
:1037100004A903AAFEF7F6FEDDE903200221059DB8
:10372000CDE9001041F6E950C0F6000009A10023E0
:103730000295FFF7EDFD706010B1012006B070BD7D
:103740004FF0500080F31188BFF36F8FBFF34F8F9E
:10375000FEE700BF546D722053766300F1EE100A4D
:103760004FF6FF71C0F2C03120EA010040F0407016
:10377000E1EE100A704700000000000000000102A6
:103780000304060708090000AC3700080000000029
:103790000000000000000000000000000002000027
:1037A0001800000000000000000000006465666171
:1037B000756C745461736B00546D7251000000009D
:1037C000E037000800000020D0000000E8010008F9
:1037D000B0380008D0000020185000000402000893
:1037E00001000000100000000024F4000000002090
:1037F0001FF041047FFE410499300540193000005C
:103800001FF00004FFFE04203FF8100800001830ED
:1038100010201424FEFE102030603870367052A83C
:1038200050AC9126122410201020102000001C18EB
:10383000F11010D01450FE10111030D03850541424
:10384000501E93F0101010101010101000003030A7
:1038500020202024FBFE2020202829FC3088E0881E
:10386000A050205020202050E08843060000018016
:10387000010001000104FFFE0100010003000280BD
:103880000440044008201010200EC00400002A88C4
:10389000313C228838382288393822887FFE40041B
:1038A0008FE800407FFC008003800100AAAAAAAA3A
:04000005080001AD41
:00000001FF
